{
  "_format": "hh-sol-artifact-1",
  "contractName": "ChainArt",
  "sourceName": "contracts/ChainArt.sol",
  "abi": [
    {
      "inputs": [],
      "stateMutability": "nonpayable",
      "type": "constructor"
    },
    {
      "anonymous": false,
      "inputs": [
        {
          "indexed": true,
          "internalType": "address",
          "name": "owner",
          "type": "address"
        },
        {
          "indexed": true,
          "internalType": "address",
          "name": "approved",
          "type": "address"
        },
        {
          "indexed": true,
          "internalType": "uint256",
          "name": "tokenId",
          "type": "uint256"
        }
      ],
      "name": "Approval",
      "type": "event"
    },
    {
      "anonymous": false,
      "inputs": [
        {
          "indexed": true,
          "internalType": "address",
          "name": "owner",
          "type": "address"
        },
        {
          "indexed": true,
          "internalType": "address",
          "name": "operator",
          "type": "address"
        },
        {
          "indexed": false,
          "internalType": "bool",
          "name": "approved",
          "type": "bool"
        }
      ],
      "name": "ApprovalForAll",
      "type": "event"
    },
    {
      "anonymous": false,
      "inputs": [
        {
          "indexed": true,
          "internalType": "uint256",
          "name": "tokenId",
          "type": "uint256"
        }
      ],
      "name": "CreatedChainArtNFT",
      "type": "event"
    },
    {
      "anonymous": false,
      "inputs": [
        {
          "indexed": true,
          "internalType": "address",
          "name": "previousOwner",
          "type": "address"
        },
        {
          "indexed": true,
          "internalType": "address",
          "name": "newOwner",
          "type": "address"
        }
      ],
      "name": "OwnershipTransferred",
      "type": "event"
    },
    {
      "anonymous": false,
      "inputs": [
        {
          "indexed": true,
          "internalType": "address",
          "name": "from",
          "type": "address"
        },
        {
          "indexed": true,
          "internalType": "address",
          "name": "to",
          "type": "address"
        },
        {
          "indexed": true,
          "internalType": "uint256",
          "name": "tokenId",
          "type": "uint256"
        }
      ],
      "name": "Transfer",
      "type": "event"
    },
    {
      "inputs": [
        {
          "internalType": "address",
          "name": "to",
          "type": "address"
        },
        {
          "internalType": "uint256",
          "name": "tokenId",
          "type": "uint256"
        }
      ],
      "name": "approve",
      "outputs": [],
      "stateMutability": "nonpayable",
      "type": "function"
    },
    {
      "inputs": [
        {
          "internalType": "address",
          "name": "owner",
          "type": "address"
        }
      ],
      "name": "balanceOf",
      "outputs": [
        {
          "internalType": "uint256",
          "name": "",
          "type": "uint256"
        }
      ],
      "stateMutability": "view",
      "type": "function"
    },
    {
      "inputs": [
        {
          "internalType": "string",
          "name": "base64SVG",
          "type": "string"
        }
      ],
      "name": "base64ToImageURI",
      "outputs": [
        {
          "internalType": "string",
          "name": "",
          "type": "string"
        }
      ],
      "stateMutability": "pure",
      "type": "function"
    },
    {
      "inputs": [
        {
          "internalType": "string",
          "name": "svg",
          "type": "string"
        }
      ],
      "name": "createFromBase64",
      "outputs": [],
      "stateMutability": "payable",
      "type": "function"
    },
    {
      "inputs": [],
      "name": "feeAddress",
      "outputs": [
        {
          "internalType": "address",
          "name": "",
          "type": "address"
        }
      ],
      "stateMutability": "view",
      "type": "function"
    },
    {
      "inputs": [
        {
          "internalType": "string",
          "name": "imageURI",
          "type": "string"
        }
      ],
      "name": "formatTokenURI",
      "outputs": [
        {
          "internalType": "string",
          "name": "",
          "type": "string"
        }
      ],
      "stateMutability": "pure",
      "type": "function"
    },
    {
      "inputs": [
        {
          "internalType": "uint256",
          "name": "tokenId",
          "type": "uint256"
        }
      ],
      "name": "getApproved",
      "outputs": [
        {
          "internalType": "address",
          "name": "",
          "type": "address"
        }
      ],
      "stateMutability": "view",
      "type": "function"
    },
    {
      "inputs": [
        {
          "internalType": "address",
          "name": "owner",
          "type": "address"
        },
        {
          "internalType": "address",
          "name": "operator",
          "type": "address"
        }
      ],
      "name": "isApprovedForAll",
      "outputs": [
        {
          "internalType": "bool",
          "name": "",
          "type": "bool"
        }
      ],
      "stateMutability": "view",
      "type": "function"
    },
    {
      "inputs": [],
      "name": "mintPrice",
      "outputs": [
        {
          "internalType": "uint256",
          "name": "",
          "type": "uint256"
        }
      ],
      "stateMutability": "view",
      "type": "function"
    },
    {
      "inputs": [],
      "name": "name",
      "outputs": [
        {
          "internalType": "string",
          "name": "",
          "type": "string"
        }
      ],
      "stateMutability": "view",
      "type": "function"
    },
    {
      "inputs": [],
      "name": "owner",
      "outputs": [
        {
          "internalType": "address",
          "name": "",
          "type": "address"
        }
      ],
      "stateMutability": "view",
      "type": "function"
    },
    {
      "inputs": [
        {
          "internalType": "uint256",
          "name": "tokenId",
          "type": "uint256"
        }
      ],
      "name": "ownerOf",
      "outputs": [
        {
          "internalType": "address",
          "name": "",
          "type": "address"
        }
      ],
      "stateMutability": "view",
      "type": "function"
    },
    {
      "inputs": [],
      "name": "renounceOwnership",
      "outputs": [],
      "stateMutability": "nonpayable",
      "type": "function"
    },
    {
      "inputs": [
        {
          "internalType": "address",
          "name": "from",
          "type": "address"
        },
        {
          "internalType": "address",
          "name": "to",
          "type": "address"
        },
        {
          "internalType": "uint256",
          "name": "tokenId",
          "type": "uint256"
        }
      ],
      "name": "safeTransferFrom",
      "outputs": [],
      "stateMutability": "nonpayable",
      "type": "function"
    },
    {
      "inputs": [
        {
          "internalType": "address",
          "name": "from",
          "type": "address"
        },
        {
          "internalType": "address",
          "name": "to",
          "type": "address"
        },
        {
          "internalType": "uint256",
          "name": "tokenId",
          "type": "uint256"
        },
        {
          "internalType": "bytes",
          "name": "_data",
          "type": "bytes"
        }
      ],
      "name": "safeTransferFrom",
      "outputs": [],
      "stateMutability": "nonpayable",
      "type": "function"
    },
    {
      "inputs": [
        {
          "internalType": "address",
          "name": "operator",
          "type": "address"
        },
        {
          "internalType": "bool",
          "name": "approved",
          "type": "bool"
        }
      ],
      "name": "setApprovalForAll",
      "outputs": [],
      "stateMutability": "nonpayable",
      "type": "function"
    },
    {
      "inputs": [
        {
          "internalType": "bytes4",
          "name": "interfaceId",
          "type": "bytes4"
        }
      ],
      "name": "supportsInterface",
      "outputs": [
        {
          "internalType": "bool",
          "name": "",
          "type": "bool"
        }
      ],
      "stateMutability": "view",
      "type": "function"
    },
    {
      "inputs": [],
      "name": "symbol",
      "outputs": [
        {
          "internalType": "string",
          "name": "",
          "type": "string"
        }
      ],
      "stateMutability": "view",
      "type": "function"
    },
    {
      "inputs": [],
      "name": "tokenCounter",
      "outputs": [
        {
          "internalType": "uint256",
          "name": "",
          "type": "uint256"
        }
      ],
      "stateMutability": "view",
      "type": "function"
    },
    {
      "inputs": [
        {
          "internalType": "uint256",
          "name": "tokenId",
          "type": "uint256"
        }
      ],
      "name": "tokenURI",
      "outputs": [
        {
          "internalType": "string",
          "name": "",
          "type": "string"
        }
      ],
      "stateMutability": "view",
      "type": "function"
    },
    {
      "inputs": [
        {
          "internalType": "address",
          "name": "from",
          "type": "address"
        },
        {
          "internalType": "address",
          "name": "to",
          "type": "address"
        },
        {
          "internalType": "uint256",
          "name": "tokenId",
          "type": "uint256"
        }
      ],
      "name": "transferFrom",
      "outputs": [],
      "stateMutability": "nonpayable",
      "type": "function"
    },
    {
      "inputs": [
        {
          "internalType": "address",
          "name": "newOwner",
          "type": "address"
        }
      ],
      "name": "transferOwnership",
      "outputs": [],
      "stateMutability": "nonpayable",
      "type": "function"
    }
  ],
  "bytecode": "0x60806040523480156200001157600080fd5b506040518060400160405280600981526020017f436861696e2041727400000000000000000000000000000000000000000000008152506040518060400160405280600581526020017f434841494e000000000000000000000000000000000000000000000000000000815250816000908051906020019062000096929190620001ae565b508060019080519060200190620000af929190620001ae565b505050620000d2620000c6620000e060201b60201c565b620000e860201b60201c565b6000600881905550620002c3565b600033905090565b6000600760009054906101000a900473ffffffffffffffffffffffffffffffffffffffff16905081600760006101000a81548173ffffffffffffffffffffffffffffffffffffffff021916908373ffffffffffffffffffffffffffffffffffffffff1602179055508173ffffffffffffffffffffffffffffffffffffffff168173ffffffffffffffffffffffffffffffffffffffff167f8be0079c531659141344cd1fd0a4f28419497f9722a3daafe3b4186f6b6457e060405160405180910390a35050565b828054620001bc906200028d565b90600052602060002090601f016020900481019282620001e057600085556200022c565b82601f10620001fb57805160ff19168380011785556200022c565b828001600101855582156200022c579182015b828111156200022b5782518255916020019190600101906200020e565b5b5090506200023b91906200023f565b5090565b5b808211156200025a57600081600090555060010162000240565b5090565b7f4e487b7100000000000000000000000000000000000000000000000000000000600052602260045260246000fd5b60006002820490506001821680620002a657607f821691505b60208210811415620002bd57620002bc6200025e565b5b50919050565b6137aa80620002d36000396000f3fe6080604052600436106101355760003560e01c8063715018a6116100ab578063b6460df01161006f578063b6460df014610419578063b88d4fde14610456578063c87b56dd1461047f578063d082e381146104bc578063e985e9c5146104e7578063f2fde38b1461052457610135565b8063715018a61461034657806371aee1931461035d5780638da5cb5b1461039a57806395d89b41146103c5578063a22cb465146103f057610135565b806323b872dd116100fd57806323b872dd14610224578063412753581461024d57806342842e0e146102785780636352211e146102a15780636817c76c146102de57806370a082311461030957610135565b806301ffc9a71461013a57806306fdde0314610177578063081812fc146101a2578063095ea7b3146101df578063187bf6c814610208575b600080fd5b34801561014657600080fd5b50610161600480360381019061015c919061213a565b61054d565b60405161016e9190612182565b60405180910390f35b34801561018357600080fd5b5061018c61062f565b6040516101999190612236565b60405180910390f35b3480156101ae57600080fd5b506101c960048036038101906101c4919061228e565b6106c1565b6040516101d691906122fc565b60405180910390f35b3480156101eb57600080fd5b5061020660048036038101906102019190612343565b610746565b005b610222600480360381019061021d91906124b8565b61085e565b005b34801561023057600080fd5b5061024b60048036038101906102469190612501565b610978565b005b34801561025957600080fd5b506102626109d8565b60405161026f91906122fc565b60405180910390f35b34801561028457600080fd5b5061029f600480360381019061029a9190612501565b6109f0565b005b3480156102ad57600080fd5b506102c860048036038101906102c3919061228e565b610a10565b6040516102d591906122fc565b60405180910390f35b3480156102ea57600080fd5b506102f3610ac2565b6040516103009190612563565b60405180910390f35b34801561031557600080fd5b50610330600480360381019061032b919061257e565b610aca565b60405161033d9190612563565b60405180910390f35b34801561035257600080fd5b5061035b610b82565b005b34801561036957600080fd5b50610384600480360381019061037f91906124b8565b610c0a565b6040516103919190612236565b60405180910390f35b3480156103a657600080fd5b506103af610c5a565b6040516103bc91906122fc565b60405180910390f35b3480156103d157600080fd5b506103da610c84565b6040516103e79190612236565b60405180910390f35b3480156103fc57600080fd5b50610417600480360381019061041291906125d7565b610d16565b005b34801561042557600080fd5b50610440600480360381019061043b91906124b8565b610d2c565b60405161044d9190612236565b60405180910390f35b34801561046257600080fd5b5061047d600480360381019061047891906126b8565b610d92565b005b34801561048b57600080fd5b506104a660048036038101906104a1919061228e565b610df4565b6040516104b39190612236565b60405180910390f35b3480156104c857600080fd5b506104d1610f46565b6040516104de9190612563565b60405180910390f35b3480156104f357600080fd5b5061050e6004803603810190610509919061273b565b610f4c565b60405161051b9190612182565b60405180910390f35b34801561053057600080fd5b5061054b6004803603810190610546919061257e565b610fe0565b005b60007f80ac58cd000000000000000000000000000000000000000000000000000000007bffffffffffffffffffffffffffffffffffffffffffffffffffffffff1916827bffffffffffffffffffffffffffffffffffffffffffffffffffffffff1916148061061857507f5b5e139f000000000000000000000000000000000000000000000000000000007bffffffffffffffffffffffffffffffffffffffffffffffffffffffff1916827bffffffffffffffffffffffffffffffffffffffffffffffffffffffff1916145b806106285750610627826110d8565b5b9050919050565b60606000805461063e906127aa565b80601f016020809104026020016040519081016040528092919081815260200182805461066a906127aa565b80156106b75780601f1061068c576101008083540402835291602001916106b7565b820191906000526020600020905b81548152906001019060200180831161069a57829003601f168201915b5050505050905090565b60006106cc82611142565b61070b576040517f08c379a00000000000000000000000000000000000000000000000000000000081526004016107029061284e565b60405180910390fd5b6004600083815260200190815260200160002060009054906101000a900473ffffffffffffffffffffffffffffffffffffffff169050919050565b600061075182610a10565b90508073ffffffffffffffffffffffffffffffffffffffff168373ffffffffffffffffffffffffffffffffffffffff1614156107c2576040517f08c379a00000000000000000000000000000000000000000000000000000000081526004016107b9906128e0565b60405180910390fd5b8073ffffffffffffffffffffffffffffffffffffffff166107e16111ae565b73ffffffffffffffffffffffffffffffffffffffff161480610810575061080f8161080a6111ae565b610f4c565b5b61084f576040517f08c379a000000000000000000000000000000000000000000000000000000000815260040161084690612972565b60405180910390fd5b61085983836111b6565b505050565b633b9aca0034146108a4576040517f08c379a000000000000000000000000000000000000000000000000000000000815260040161089b906129de565b60405180910390fd5b6108b03360085461126f565b60006108bb82610d2c565b90506108d16008546108cc83610c0a565b61128d565b60016008546108e09190612a2d565b60088190555073fb2a31b1109599cf3990bf50ec9ff0b85a4ecc7373ffffffffffffffffffffffffffffffffffffffff166108fc633b9aca009081150290604051600060405180830381858888f19350505050158015610944573d6000803e3d6000fd5b506008547fb3c6fc280e6a1190954060f6d6bf2b7099419b2a874e2a1cca611fba307c9f5960405160405180910390a25050565b6109896109836111ae565b82611301565b6109c8576040517f08c379a00000000000000000000000000000000000000000000000000000000081526004016109bf90612af5565b60405180910390fd5b6109d38383836113df565b505050565b73fb2a31b1109599cf3990bf50ec9ff0b85a4ecc7381565b610a0b83838360405180602001604052806000815250610d92565b505050565b6000806002600084815260200190815260200160002060009054906101000a900473ffffffffffffffffffffffffffffffffffffffff169050600073ffffffffffffffffffffffffffffffffffffffff168173ffffffffffffffffffffffffffffffffffffffff161415610ab9576040517f08c379a0000000000000000000000000000000000000000000000000000000008152600401610ab090612b87565b60405180910390fd5b80915050919050565b633b9aca0081565b60008073ffffffffffffffffffffffffffffffffffffffff168273ffffffffffffffffffffffffffffffffffffffff161415610b3b576040517f08c379a0000000000000000000000000000000000000000000000000000000008152600401610b3290612c19565b60405180910390fd5b600360008373ffffffffffffffffffffffffffffffffffffffff1673ffffffffffffffffffffffffffffffffffffffff168152602001908152602001600020549050919050565b610b8a6111ae565b73ffffffffffffffffffffffffffffffffffffffff16610ba8610c5a565b73ffffffffffffffffffffffffffffffffffffffff1614610bfe576040517f08c379a0000000000000000000000000000000000000000000000000000000008152600401610bf590612c85565b60405180910390fd5b610c08600061163b565b565b6060610c3482604051602001610c209190612e11565b604051602081830303815290604052611701565b604051602001610c449190612ea0565b6040516020818303038152906040529050919050565b6000600760009054906101000a900473ffffffffffffffffffffffffffffffffffffffff16905090565b606060018054610c93906127aa565b80601f0160208091040260200160405190810160405280929190818152602001828054610cbf906127aa565b8015610d0c5780601f10610ce157610100808354040283529160200191610d0c565b820191906000526020600020905b815481529060010190602001808311610cef57829003601f168201915b5050505050905090565b610d28610d216111ae565b838361187a565b5050565b606060006040518060400160405280601a81526020017f646174613a696d6167652f7376672b786d6c3b6261736536342c00000000000081525090508083604051602001610d7b929190612ec2565b604051602081830303815290604052915050919050565b610da3610d9d6111ae565b83611301565b610de2576040517f08c379a0000000000000000000000000000000000000000000000000000000008152600401610dd990612af5565b60405180910390fd5b610dee848484846119e7565b50505050565b6060610dff82611142565b610e3e576040517f08c379a0000000000000000000000000000000000000000000000000000000008152600401610e3590612f58565b60405180910390fd5b6000600660008481526020019081526020016000208054610e5e906127aa565b80601f0160208091040260200160405190810160405280929190818152602001828054610e8a906127aa565b8015610ed75780601f10610eac57610100808354040283529160200191610ed7565b820191906000526020600020905b815481529060010190602001808311610eba57829003601f168201915b505050505090506000610ee8611a43565b9050600081511415610efe578192505050610f41565b600082511115610f33578082604051602001610f1b929190612ec2565b60405160208183030381529060405292505050610f41565b610f3c84611a5a565b925050505b919050565b60085481565b6000600560008473ffffffffffffffffffffffffffffffffffffffff1673ffffffffffffffffffffffffffffffffffffffff16815260200190815260200160002060008373ffffffffffffffffffffffffffffffffffffffff1673ffffffffffffffffffffffffffffffffffffffff16815260200190815260200160002060009054906101000a900460ff16905092915050565b610fe86111ae565b73ffffffffffffffffffffffffffffffffffffffff16611006610c5a565b73ffffffffffffffffffffffffffffffffffffffff161461105c576040517f08c379a000000000000000000000000000000000000000000000000000000000815260040161105390612c85565b60405180910390fd5b600073ffffffffffffffffffffffffffffffffffffffff168173ffffffffffffffffffffffffffffffffffffffff1614156110cc576040517f08c379a00000000000000000000000000000000000000000000000000000000081526004016110c390612fea565b60405180910390fd5b6110d58161163b565b50565b60007f01ffc9a7000000000000000000000000000000000000000000000000000000007bffffffffffffffffffffffffffffffffffffffffffffffffffffffff1916827bffffffffffffffffffffffffffffffffffffffffffffffffffffffff1916149050919050565b60008073ffffffffffffffffffffffffffffffffffffffff166002600084815260200190815260200160002060009054906101000a900473ffffffffffffffffffffffffffffffffffffffff1673ffffffffffffffffffffffffffffffffffffffff1614159050919050565b600033905090565b816004600083815260200190815260200160002060006101000a81548173ffffffffffffffffffffffffffffffffffffffff021916908373ffffffffffffffffffffffffffffffffffffffff160217905550808273ffffffffffffffffffffffffffffffffffffffff1661122983610a10565b73ffffffffffffffffffffffffffffffffffffffff167f8c5be1e5ebec7d5bd14f71427d1e84f3dd0314c0f7b2291e5b200ac8c7c3b92560405160405180910390a45050565b611289828260405180602001604052806000815250611b01565b5050565b61129682611142565b6112d5576040517f08c379a00000000000000000000000000000000000000000000000000000000081526004016112cc9061307c565b60405180910390fd5b806006600084815260200190815260200160002090805190602001906112fc92919061202b565b505050565b600061130c82611142565b61134b576040517f08c379a00000000000000000000000000000000000000000000000000000000081526004016113429061310e565b60405180910390fd5b600061135683610a10565b90508073ffffffffffffffffffffffffffffffffffffffff168473ffffffffffffffffffffffffffffffffffffffff1614806113c557508373ffffffffffffffffffffffffffffffffffffffff166113ad846106c1565b73ffffffffffffffffffffffffffffffffffffffff16145b806113d657506113d58185610f4c565b5b91505092915050565b8273ffffffffffffffffffffffffffffffffffffffff166113ff82610a10565b73ffffffffffffffffffffffffffffffffffffffff1614611455576040517f08c379a000000000000000000000000000000000000000000000000000000000815260040161144c906131a0565b60405180910390fd5b600073ffffffffffffffffffffffffffffffffffffffff168273ffffffffffffffffffffffffffffffffffffffff1614156114c5576040517f08c379a00000000000000000000000000000000000000000000000000000000081526004016114bc90613232565b60405180910390fd5b6114d0838383611b5c565b6114db6000826111b6565b6001600360008573ffffffffffffffffffffffffffffffffffffffff1673ffffffffffffffffffffffffffffffffffffffff168152602001908152602001600020600082825461152b9190613252565b925050819055506001600360008473ffffffffffffffffffffffffffffffffffffffff1673ffffffffffffffffffffffffffffffffffffffff16815260200190815260200160002060008282546115829190612a2d565b92505081905550816002600083815260200190815260200160002060006101000a81548173ffffffffffffffffffffffffffffffffffffffff021916908373ffffffffffffffffffffffffffffffffffffffff160217905550808273ffffffffffffffffffffffffffffffffffffffff168473ffffffffffffffffffffffffffffffffffffffff167fddf252ad1be2c89b69c2b068fc378daa952ba7f163c4a11628f55a4df523b3ef60405160405180910390a4505050565b6000600760009054906101000a900473ffffffffffffffffffffffffffffffffffffffff16905081600760006101000a81548173ffffffffffffffffffffffffffffffffffffffff021916908373ffffffffffffffffffffffffffffffffffffffff1602179055508173ffffffffffffffffffffffffffffffffffffffff168173ffffffffffffffffffffffffffffffffffffffff167f8be0079c531659141344cd1fd0a4f28419497f9722a3daafe3b4186f6b6457e060405160405180910390a35050565b606060008251141561172457604051806020016040528060008152509050611875565b600060405180606001604052806040815260200161373560409139905060006003600285516117539190612a2d565b61175d91906132b5565b600461176991906132e6565b9050600060208261177a9190612a2d565b67ffffffffffffffff8111156117935761179261238d565b5b6040519080825280601f01601f1916602001820160405280156117c55781602001600182028036833780820191505090505b509050818152600183018586518101602084015b81831015611834576003830192508251603f8160121c168501518253600182019150603f81600c1c168501518253600182019150603f8160061c168501518253600182019150603f81168501518253600182019150506117d9565b60038951066001811461184e576002811461185e57611869565b613d3d60f01b6002830352611869565b603d60f81b60018303525b50505050508093505050505b919050565b8173ffffffffffffffffffffffffffffffffffffffff168373ffffffffffffffffffffffffffffffffffffffff1614156118e9576040517f08c379a00000000000000000000000000000000000000000000000000000000081526004016118e09061338c565b60405180910390fd5b80600560008573ffffffffffffffffffffffffffffffffffffffff1673ffffffffffffffffffffffffffffffffffffffff16815260200190815260200160002060008473ffffffffffffffffffffffffffffffffffffffff1673ffffffffffffffffffffffffffffffffffffffff16815260200190815260200160002060006101000a81548160ff0219169083151502179055508173ffffffffffffffffffffffffffffffffffffffff168373ffffffffffffffffffffffffffffffffffffffff167f17307eab39ab6107e8899845ad3d59bd9653f200f220920489ca2b5937696c31836040516119da9190612182565b60405180910390a3505050565b6119f28484846113df565b6119fe84848484611b61565b611a3d576040517f08c379a0000000000000000000000000000000000000000000000000000000008152600401611a349061341e565b60405180910390fd5b50505050565b606060405180602001604052806000815250905090565b6060611a6582611142565b611aa4576040517f08c379a0000000000000000000000000000000000000000000000000000000008152600401611a9b906134b0565b60405180910390fd5b6000611aae611a43565b90506000815111611ace5760405180602001604052806000815250611af9565b80611ad884611ce9565b604051602001611ae9929190612ec2565b6040516020818303038152906040525b915050919050565b611b0b8383611e4a565b611b186000848484611b61565b611b57576040517f08c379a0000000000000000000000000000000000000000000000000000000008152600401611b4e9061341e565b60405180910390fd5b505050565b505050565b6000611b828473ffffffffffffffffffffffffffffffffffffffff16612018565b15611cdc578373ffffffffffffffffffffffffffffffffffffffff1663150b7a02611bab6111ae565b8786866040518563ffffffff1660e01b8152600401611bcd9493929190613525565b6020604051808303816000875af1925050508015611c0957506040513d601f19601f82011682018060405250810190611c069190613586565b60015b611c8c573d8060008114611c39576040519150601f19603f3d011682016040523d82523d6000602084013e611c3e565b606091505b50600081511415611c84576040517f08c379a0000000000000000000000000000000000000000000000000000000008152600401611c7b9061341e565b60405180910390fd5b805181602001fd5b63150b7a0260e01b7bffffffffffffffffffffffffffffffffffffffffffffffffffffffff1916817bffffffffffffffffffffffffffffffffffffffffffffffffffffffff191614915050611ce1565b600190505b949350505050565b60606000821415611d31576040518060400160405280600181526020017f30000000000000000000000000000000000000000000000000000000000000008152509050611e45565b600082905060005b60008214611d63578080611d4c906135b3565b915050600a82611d5c91906132b5565b9150611d39565b60008167ffffffffffffffff811115611d7f57611d7e61238d565b5b6040519080825280601f01601f191660200182016040528015611db15781602001600182028036833780820191505090505b5090505b60008514611e3e57600182611dca9190613252565b9150600a85611dd991906135fc565b6030611de59190612a2d565b60f81b818381518110611dfb57611dfa61362d565b5b60200101907effffffffffffffffffffffffffffffffffffffffffffffffffffffffffffff1916908160001a905350600a85611e3791906132b5565b9450611db5565b8093505050505b919050565b600073ffffffffffffffffffffffffffffffffffffffff168273ffffffffffffffffffffffffffffffffffffffff161415611eba576040517f08c379a0000000000000000000000000000000000000000000000000000000008152600401611eb1906136a8565b60405180910390fd5b611ec381611142565b15611f03576040517f08c379a0000000000000000000000000000000000000000000000000000000008152600401611efa90613714565b60405180910390fd5b611f0f60008383611b5c565b6001600360008473ffffffffffffffffffffffffffffffffffffffff1673ffffffffffffffffffffffffffffffffffffffff1681526020019081526020016000206000828254611f5f9190612a2d565b92505081905550816002600083815260200190815260200160002060006101000a81548173ffffffffffffffffffffffffffffffffffffffff021916908373ffffffffffffffffffffffffffffffffffffffff160217905550808273ffffffffffffffffffffffffffffffffffffffff16600073ffffffffffffffffffffffffffffffffffffffff167fddf252ad1be2c89b69c2b068fc378daa952ba7f163c4a11628f55a4df523b3ef60405160405180910390a45050565b600080823b905060008111915050919050565b828054612037906127aa565b90600052602060002090601f01602090048101928261205957600085556120a0565b82601f1061207257805160ff19168380011785556120a0565b828001600101855582156120a0579182015b8281111561209f578251825591602001919060010190612084565b5b5090506120ad91906120b1565b5090565b5b808211156120ca5760008160009055506001016120b2565b5090565b6000604051905090565b600080fd5b600080fd5b60007fffffffff0000000000000000000000000000000000000000000000000000000082169050919050565b612117816120e2565b811461212257600080fd5b50565b6000813590506121348161210e565b92915050565b6000602082840312156121505761214f6120d8565b5b600061215e84828501612125565b91505092915050565b60008115159050919050565b61217c81612167565b82525050565b60006020820190506121976000830184612173565b92915050565b600081519050919050565b600082825260208201905092915050565b60005b838110156121d75780820151818401526020810190506121bc565b838111156121e6576000848401525b50505050565b6000601f19601f8301169050919050565b60006122088261219d565b61221281856121a8565b93506122228185602086016121b9565b61222b816121ec565b840191505092915050565b6000602082019050818103600083015261225081846121fd565b905092915050565b6000819050919050565b61226b81612258565b811461227657600080fd5b50565b60008135905061228881612262565b92915050565b6000602082840312156122a4576122a36120d8565b5b60006122b284828501612279565b91505092915050565b600073ffffffffffffffffffffffffffffffffffffffff82169050919050565b60006122e6826122bb565b9050919050565b6122f6816122db565b82525050565b600060208201905061231160008301846122ed565b92915050565b612320816122db565b811461232b57600080fd5b50565b60008135905061233d81612317565b92915050565b6000806040838503121561235a576123596120d8565b5b60006123688582860161232e565b925050602061237985828601612279565b9150509250929050565b600080fd5b600080fd5b7f4e487b7100000000000000000000000000000000000000000000000000000000600052604160045260246000fd5b6123c5826121ec565b810181811067ffffffffffffffff821117156123e4576123e361238d565b5b80604052505050565b60006123f76120ce565b905061240382826123bc565b919050565b600067ffffffffffffffff8211156124235761242261238d565b5b61242c826121ec565b9050602081019050919050565b82818337600083830152505050565b600061245b61245684612408565b6123ed565b90508281526020810184848401111561247757612476612388565b5b612482848285612439565b509392505050565b600082601f83011261249f5761249e612383565b5b81356124af848260208601612448565b91505092915050565b6000602082840312156124ce576124cd6120d8565b5b600082013567ffffffffffffffff8111156124ec576124eb6120dd565b5b6124f88482850161248a565b91505092915050565b60008060006060848603121561251a576125196120d8565b5b60006125288682870161232e565b93505060206125398682870161232e565b925050604061254a86828701612279565b9150509250925092565b61255d81612258565b82525050565b60006020820190506125786000830184612554565b92915050565b600060208284031215612594576125936120d8565b5b60006125a28482850161232e565b91505092915050565b6125b481612167565b81146125bf57600080fd5b50565b6000813590506125d1816125ab565b92915050565b600080604083850312156125ee576125ed6120d8565b5b60006125fc8582860161232e565b925050602061260d858286016125c2565b9150509250929050565b600067ffffffffffffffff8211156126325761263161238d565b5b61263b826121ec565b9050602081019050919050565b600061265b61265684612617565b6123ed565b90508281526020810184848401111561267757612676612388565b5b612682848285612439565b509392505050565b600082601f83011261269f5761269e612383565b5b81356126af848260208601612648565b91505092915050565b600080600080608085870312156126d2576126d16120d8565b5b60006126e08782880161232e565b94505060206126f18782880161232e565b935050604061270287828801612279565b925050606085013567ffffffffffffffff811115612723576127226120dd565b5b61272f8782880161268a565b91505092959194509250565b60008060408385031215612752576127516120d8565b5b60006127608582860161232e565b92505060206127718582860161232e565b9150509250929050565b7f4e487b7100000000000000000000000000000000000000000000000000000000600052602260045260246000fd5b600060028204905060018216806127c257607f821691505b602082108114156127d6576127d561277b565b5b50919050565b7f4552433732313a20617070726f76656420717565727920666f72206e6f6e657860008201527f697374656e7420746f6b656e0000000000000000000000000000000000000000602082015250565b6000612838602c836121a8565b9150612843826127dc565b604082019050919050565b600060208201905081810360008301526128678161282b565b9050919050565b7f4552433732313a20617070726f76616c20746f2063757272656e74206f776e6560008201527f7200000000000000000000000000000000000000000000000000000000000000602082015250565b60006128ca6021836121a8565b91506128d58261286e565b604082019050919050565b600060208201905081810360008301526128f9816128bd565b9050919050565b7f4552433732313a20617070726f76652063616c6c6572206973206e6f74206f7760008201527f6e6572206e6f7220617070726f76656420666f7220616c6c0000000000000000602082015250565b600061295c6038836121a8565b915061296782612900565b604082019050919050565b6000602082019050818103600083015261298b8161294f565b9050919050565b7f496e76616c6964206d696e742070726963650000000000000000000000000000600082015250565b60006129c86012836121a8565b91506129d382612992565b602082019050919050565b600060208201905081810360008301526129f7816129bb565b9050919050565b7f4e487b7100000000000000000000000000000000000000000000000000000000600052601160045260246000fd5b6000612a3882612258565b9150612a4383612258565b9250827fffffffffffffffffffffffffffffffffffffffffffffffffffffffffffffffff03821115612a7857612a776129fe565b5b828201905092915050565b7f4552433732313a207472616e736665722063616c6c6572206973206e6f74206f60008201527f776e6572206e6f7220617070726f766564000000000000000000000000000000602082015250565b6000612adf6031836121a8565b9150612aea82612a83565b604082019050919050565b60006020820190508181036000830152612b0e81612ad2565b9050919050565b7f4552433732313a206f776e657220717565727920666f72206e6f6e657869737460008201527f656e7420746f6b656e0000000000000000000000000000000000000000000000602082015250565b6000612b716029836121a8565b9150612b7c82612b15565b604082019050919050565b60006020820190508181036000830152612ba081612b64565b9050919050565b7f4552433732313a2062616c616e636520717565727920666f7220746865207a6560008201527f726f206164647265737300000000000000000000000000000000000000000000602082015250565b6000612c03602a836121a8565b9150612c0e82612ba7565b604082019050919050565b60006020820190508181036000830152612c3281612bf6565b9050919050565b7f4f776e61626c653a2063616c6c6572206973206e6f7420746865206f776e6572600082015250565b6000612c6f6020836121a8565b9150612c7a82612c39565b602082019050919050565b60006020820190508181036000830152612c9e81612c62565b9050919050565b600081905092915050565b7f7b226e616d65223a220000000000000000000000000000000000000000000000600082015250565b6000612ce6600983612ca5565b9150612cf182612cb0565b600982019050919050565b7f436861696e204172740000000000000000000000000000000000000000000000600082015250565b6000612d32600983612ca5565b9150612d3d82612cfc565b600982019050919050565b7f222c2022696d616765223a220000000000000000000000000000000000000000600082015250565b6000612d7e600c83612ca5565b9150612d8982612d48565b600c82019050919050565b6000612d9f8261219d565b612da98185612ca5565b9350612db98185602086016121b9565b80840191505092915050565b7f227d000000000000000000000000000000000000000000000000000000000000600082015250565b6000612dfb600283612ca5565b9150612e0682612dc5565b600282019050919050565b6000612e1c82612cd9565b9150612e2782612d25565b9150612e3282612d71565b9150612e3e8284612d94565b9150612e4982612dee565b915081905092915050565b7f646174613a6170706c69636174696f6e2f6a736f6e3b6261736536342c000000600082015250565b6000612e8a601d83612ca5565b9150612e9582612e54565b601d82019050919050565b6000612eab82612e7d565b9150612eb78284612d94565b915081905092915050565b6000612ece8285612d94565b9150612eda8284612d94565b91508190509392505050565b7f45524337323155524953746f726167653a2055524920717565727920666f722060008201527f6e6f6e6578697374656e7420746f6b656e000000000000000000000000000000602082015250565b6000612f426031836121a8565b9150612f4d82612ee6565b604082019050919050565b60006020820190508181036000830152612f7181612f35565b9050919050565b7f4f776e61626c653a206e6577206f776e657220697320746865207a65726f206160008201527f6464726573730000000000000000000000000000000000000000000000000000602082015250565b6000612fd46026836121a8565b9150612fdf82612f78565b604082019050919050565b6000602082019050818103600083015261300381612fc7565b9050919050565b7f45524337323155524953746f726167653a2055524920736574206f66206e6f6e60008201527f6578697374656e7420746f6b656e000000000000000000000000000000000000602082015250565b6000613066602e836121a8565b91506130718261300a565b604082019050919050565b6000602082019050818103600083015261309581613059565b9050919050565b7f4552433732313a206f70657261746f7220717565727920666f72206e6f6e657860008201527f697374656e7420746f6b656e0000000000000000000000000000000000000000602082015250565b60006130f8602c836121a8565b91506131038261309c565b604082019050919050565b60006020820190508181036000830152613127816130eb565b9050919050565b7f4552433732313a207472616e73666572206f6620746f6b656e2074686174206960008201527f73206e6f74206f776e0000000000000000000000000000000000000000000000602082015250565b600061318a6029836121a8565b91506131958261312e565b604082019050919050565b600060208201905081810360008301526131b98161317d565b9050919050565b7f4552433732313a207472616e7366657220746f20746865207a65726f2061646460008201527f7265737300000000000000000000000000000000000000000000000000000000602082015250565b600061321c6024836121a8565b9150613227826131c0565b604082019050919050565b6000602082019050818103600083015261324b8161320f565b9050919050565b600061325d82612258565b915061326883612258565b92508282101561327b5761327a6129fe565b5b828203905092915050565b7f4e487b7100000000000000000000000000000000000000000000000000000000600052601260045260246000fd5b60006132c082612258565b91506132cb83612258565b9250826132db576132da613286565b5b828204905092915050565b60006132f182612258565b91506132fc83612258565b9250817fffffffffffffffffffffffffffffffffffffffffffffffffffffffffffffffff0483118215151615613335576133346129fe565b5b828202905092915050565b7f4552433732313a20617070726f766520746f2063616c6c657200000000000000600082015250565b60006133766019836121a8565b915061338182613340565b602082019050919050565b600060208201905081810360008301526133a581613369565b9050919050565b7f4552433732313a207472616e7366657220746f206e6f6e20455243373231526560008201527f63656976657220696d706c656d656e7465720000000000000000000000000000602082015250565b60006134086032836121a8565b9150613413826133ac565b604082019050919050565b60006020820190508181036000830152613437816133fb565b9050919050565b7f4552433732314d657461646174613a2055524920717565727920666f72206e6f60008201527f6e6578697374656e7420746f6b656e0000000000000000000000000000000000602082015250565b600061349a602f836121a8565b91506134a58261343e565b604082019050919050565b600060208201905081810360008301526134c98161348d565b9050919050565b600081519050919050565b600082825260208201905092915050565b60006134f7826134d0565b61350181856134db565b93506135118185602086016121b9565b61351a816121ec565b840191505092915050565b600060808201905061353a60008301876122ed565b61354760208301866122ed565b6135546040830185612554565b818103606083015261356681846134ec565b905095945050505050565b6000815190506135808161210e565b92915050565b60006020828403121561359c5761359b6120d8565b5b60006135aa84828501613571565b91505092915050565b60006135be82612258565b91507fffffffffffffffffffffffffffffffffffffffffffffffffffffffffffffffff8214156135f1576135f06129fe565b5b600182019050919050565b600061360782612258565b915061361283612258565b92508261362257613621613286565b5b828206905092915050565b7f4e487b7100000000000000000000000000000000000000000000000000000000600052603260045260246000fd5b7f4552433732313a206d696e7420746f20746865207a65726f2061646472657373600082015250565b60006136926020836121a8565b915061369d8261365c565b602082019050919050565b600060208201905081810360008301526136c181613685565b9050919050565b7f4552433732313a20746f6b656e20616c7265616479206d696e74656400000000600082015250565b60006136fe601c836121a8565b9150613709826136c8565b602082019050919050565b6000602082019050818103600083015261372d816136f1565b905091905056fe4142434445464748494a4b4c4d4e4f505152535455565758595a6162636465666768696a6b6c6d6e6f707172737475767778797a303132333435363738392b2fa2646970667358221220b13f5218fd3110f24875e3170338f999c851ba5c9714e12b608cd9aff43d831864736f6c634300080b0033",
  "linkReferences": {},
  "deployedLinkReferences": {}
}