{
  "_format": "hh-sol-artifact-1",
  "contractName": "ChainArt",
  "sourceName": "contracts/ChainArt.sol",
  "abi": [
    {
      "inputs": [],
      "stateMutability": "nonpayable",
      "type": "constructor"
    },
    {
      "anonymous": false,
      "inputs": [
        {
          "indexed": true,
          "internalType": "address",
          "name": "owner",
          "type": "address"
        },
        {
          "indexed": true,
          "internalType": "address",
          "name": "approved",
          "type": "address"
        },
        {
          "indexed": true,
          "internalType": "uint256",
          "name": "tokenId",
          "type": "uint256"
        }
      ],
      "name": "Approval",
      "type": "event"
    },
    {
      "anonymous": false,
      "inputs": [
        {
          "indexed": true,
          "internalType": "address",
          "name": "owner",
          "type": "address"
        },
        {
          "indexed": true,
          "internalType": "address",
          "name": "operator",
          "type": "address"
        },
        {
          "indexed": false,
          "internalType": "bool",
          "name": "approved",
          "type": "bool"
        }
      ],
      "name": "ApprovalForAll",
      "type": "event"
    },
    {
      "anonymous": false,
      "inputs": [
        {
          "indexed": true,
          "internalType": "uint256",
          "name": "tokenId",
          "type": "uint256"
        },
        {
          "indexed": false,
          "internalType": "string",
          "name": "tokenURI",
          "type": "string"
        }
      ],
      "name": "CreatedChainArtNFT",
      "type": "event"
    },
    {
      "anonymous": false,
      "inputs": [
        {
          "indexed": true,
          "internalType": "address",
          "name": "previousOwner",
          "type": "address"
        },
        {
          "indexed": true,
          "internalType": "address",
          "name": "newOwner",
          "type": "address"
        }
      ],
      "name": "OwnershipTransferred",
      "type": "event"
    },
    {
      "anonymous": false,
      "inputs": [
        {
          "indexed": true,
          "internalType": "address",
          "name": "from",
          "type": "address"
        },
        {
          "indexed": true,
          "internalType": "address",
          "name": "to",
          "type": "address"
        },
        {
          "indexed": true,
          "internalType": "uint256",
          "name": "tokenId",
          "type": "uint256"
        }
      ],
      "name": "Transfer",
      "type": "event"
    },
    {
      "inputs": [
        {
          "internalType": "address",
          "name": "to",
          "type": "address"
        },
        {
          "internalType": "uint256",
          "name": "tokenId",
          "type": "uint256"
        }
      ],
      "name": "approve",
      "outputs": [],
      "stateMutability": "nonpayable",
      "type": "function"
    },
    {
      "inputs": [
        {
          "internalType": "address",
          "name": "owner",
          "type": "address"
        }
      ],
      "name": "balanceOf",
      "outputs": [
        {
          "internalType": "uint256",
          "name": "",
          "type": "uint256"
        }
      ],
      "stateMutability": "view",
      "type": "function"
    },
    {
      "inputs": [
        {
          "internalType": "bool",
          "name": "isFirstPart",
          "type": "bool"
        },
        {
          "internalType": "string",
          "name": "svgPart",
          "type": "string"
        },
        {
          "internalType": "bool",
          "name": "isLastPart",
          "type": "bool"
        }
      ],
      "name": "createMultiPart",
      "outputs": [],
      "stateMutability": "nonpayable",
      "type": "function"
    },
    {
      "inputs": [
        {
          "internalType": "string",
          "name": "imageURI",
          "type": "string"
        }
      ],
      "name": "formatTokenURI",
      "outputs": [
        {
          "internalType": "string",
          "name": "",
          "type": "string"
        }
      ],
      "stateMutability": "pure",
      "type": "function"
    },
    {
      "inputs": [
        {
          "internalType": "uint256",
          "name": "tokenId",
          "type": "uint256"
        }
      ],
      "name": "getApproved",
      "outputs": [
        {
          "internalType": "address",
          "name": "",
          "type": "address"
        }
      ],
      "stateMutability": "view",
      "type": "function"
    },
    {
      "inputs": [
        {
          "internalType": "address",
          "name": "owner",
          "type": "address"
        },
        {
          "internalType": "address",
          "name": "operator",
          "type": "address"
        }
      ],
      "name": "isApprovedForAll",
      "outputs": [
        {
          "internalType": "bool",
          "name": "",
          "type": "bool"
        }
      ],
      "stateMutability": "view",
      "type": "function"
    },
    {
      "inputs": [],
      "name": "name",
      "outputs": [
        {
          "internalType": "string",
          "name": "",
          "type": "string"
        }
      ],
      "stateMutability": "view",
      "type": "function"
    },
    {
      "inputs": [],
      "name": "owner",
      "outputs": [
        {
          "internalType": "address",
          "name": "",
          "type": "address"
        }
      ],
      "stateMutability": "view",
      "type": "function"
    },
    {
      "inputs": [
        {
          "internalType": "uint256",
          "name": "tokenId",
          "type": "uint256"
        }
      ],
      "name": "ownerOf",
      "outputs": [
        {
          "internalType": "address",
          "name": "",
          "type": "address"
        }
      ],
      "stateMutability": "view",
      "type": "function"
    },
    {
      "inputs": [],
      "name": "renounceOwnership",
      "outputs": [],
      "stateMutability": "nonpayable",
      "type": "function"
    },
    {
      "inputs": [
        {
          "internalType": "address",
          "name": "from",
          "type": "address"
        },
        {
          "internalType": "address",
          "name": "to",
          "type": "address"
        },
        {
          "internalType": "uint256",
          "name": "tokenId",
          "type": "uint256"
        }
      ],
      "name": "safeTransferFrom",
      "outputs": [],
      "stateMutability": "nonpayable",
      "type": "function"
    },
    {
      "inputs": [
        {
          "internalType": "address",
          "name": "from",
          "type": "address"
        },
        {
          "internalType": "address",
          "name": "to",
          "type": "address"
        },
        {
          "internalType": "uint256",
          "name": "tokenId",
          "type": "uint256"
        },
        {
          "internalType": "bytes",
          "name": "_data",
          "type": "bytes"
        }
      ],
      "name": "safeTransferFrom",
      "outputs": [],
      "stateMutability": "nonpayable",
      "type": "function"
    },
    {
      "inputs": [
        {
          "internalType": "address",
          "name": "operator",
          "type": "address"
        },
        {
          "internalType": "bool",
          "name": "approved",
          "type": "bool"
        }
      ],
      "name": "setApprovalForAll",
      "outputs": [],
      "stateMutability": "nonpayable",
      "type": "function"
    },
    {
      "inputs": [
        {
          "internalType": "bytes4",
          "name": "interfaceId",
          "type": "bytes4"
        }
      ],
      "name": "supportsInterface",
      "outputs": [
        {
          "internalType": "bool",
          "name": "",
          "type": "bool"
        }
      ],
      "stateMutability": "view",
      "type": "function"
    },
    {
      "inputs": [],
      "name": "svgData",
      "outputs": [
        {
          "internalType": "string",
          "name": "",
          "type": "string"
        }
      ],
      "stateMutability": "view",
      "type": "function"
    },
    {
      "inputs": [],
      "name": "symbol",
      "outputs": [
        {
          "internalType": "string",
          "name": "",
          "type": "string"
        }
      ],
      "stateMutability": "view",
      "type": "function"
    },
    {
      "inputs": [],
      "name": "tokenCounter",
      "outputs": [
        {
          "internalType": "uint256",
          "name": "",
          "type": "uint256"
        }
      ],
      "stateMutability": "view",
      "type": "function"
    },
    {
      "inputs": [
        {
          "internalType": "uint256",
          "name": "tokenId",
          "type": "uint256"
        }
      ],
      "name": "tokenURI",
      "outputs": [
        {
          "internalType": "string",
          "name": "",
          "type": "string"
        }
      ],
      "stateMutability": "view",
      "type": "function"
    },
    {
      "inputs": [
        {
          "internalType": "address",
          "name": "from",
          "type": "address"
        },
        {
          "internalType": "address",
          "name": "to",
          "type": "address"
        },
        {
          "internalType": "uint256",
          "name": "tokenId",
          "type": "uint256"
        }
      ],
      "name": "transferFrom",
      "outputs": [],
      "stateMutability": "nonpayable",
      "type": "function"
    },
    {
      "inputs": [
        {
          "internalType": "address",
          "name": "newOwner",
          "type": "address"
        }
      ],
      "name": "transferOwnership",
      "outputs": [],
      "stateMutability": "nonpayable",
      "type": "function"
    }
  ],
  "bytecode": "0x60806040523480156200001157600080fd5b506040518060400160405280600981526020017f436861696e2041727400000000000000000000000000000000000000000000008152506040518060400160405280600581526020017f434841494e000000000000000000000000000000000000000000000000000000815250816000908051906020019062000096929190620001ae565b508060019080519060200190620000af929190620001ae565b505050620000d2620000c6620000e060201b60201c565b620000e860201b60201c565b6000600881905550620002c3565b600033905090565b6000600760009054906101000a900473ffffffffffffffffffffffffffffffffffffffff16905081600760006101000a81548173ffffffffffffffffffffffffffffffffffffffff021916908373ffffffffffffffffffffffffffffffffffffffff1602179055508173ffffffffffffffffffffffffffffffffffffffff168173ffffffffffffffffffffffffffffffffffffffff167f8be0079c531659141344cd1fd0a4f28419497f9722a3daafe3b4186f6b6457e060405160405180910390a35050565b828054620001bc906200028d565b90600052602060002090601f016020900481019282620001e057600085556200022c565b82601f10620001fb57805160ff19168380011785556200022c565b828001600101855582156200022c579182015b828111156200022b5782518255916020019190600101906200020e565b5b5090506200023b91906200023f565b5090565b5b808211156200025a57600081600090555060010162000240565b5090565b7f4e487b7100000000000000000000000000000000000000000000000000000000600052602260045260246000fd5b60006002820490506001821680620002a657607f821691505b60208210811415620002bd57620002bc6200025e565b5b50919050565b61363680620002d36000396000f3fe608060405234801561001057600080fd5b506004361061012c5760003560e01c80638da5cb5b116100ad578063b88d4fde11610071578063b88d4fde1461032f578063c87b56dd1461034b578063d082e3811461037b578063e985e9c514610399578063f2fde38b146103c95761012c565b80638da5cb5b1461029d57806395d89b41146102bb578063a22cb465146102d9578063a31e06da146102f5578063b057adf8146103135761012c565b806342842e0e116100f457806342842e0e146101e75780636352211e1461020357806370a0823114610233578063715018a61461026357806371aee1931461026d5761012c565b806301ffc9a71461013157806306fdde0314610161578063081812fc1461017f578063095ea7b3146101af57806323b872dd146101cb575b600080fd5b61014b60048036038101906101469190611ea1565b6103e5565b6040516101589190611ee9565b60405180910390f35b6101696104c7565b6040516101769190611f9d565b60405180910390f35b61019960048036038101906101949190611ff5565b610559565b6040516101a69190612063565b60405180910390f35b6101c960048036038101906101c491906120aa565b6105de565b005b6101e560048036038101906101e091906120ea565b6106f6565b005b61020160048036038101906101fc91906120ea565b610756565b005b61021d60048036038101906102189190611ff5565b610776565b60405161022a9190612063565b60405180910390f35b61024d6004803603810190610248919061213d565b610828565b60405161025a9190612179565b60405180910390f35b61026b6108e0565b005b610287600480360381019061028291906122c9565b610968565b6040516102949190611f9d565b60405180910390f35b6102a56109b0565b6040516102b29190612063565b60405180910390f35b6102c36109da565b6040516102d09190611f9d565b60405180910390f35b6102f360048036038101906102ee919061233e565b610a6c565b005b6102fd610a82565b60405161030a9190611f9d565b60405180910390f35b61032d6004803603810190610328919061237e565b610b10565b005b6103496004803603810190610344919061248e565b610c72565b005b61036560048036038101906103609190611ff5565b610cd4565b6040516103729190611f9d565b60405180910390f35b610383610e26565b6040516103909190612179565b60405180910390f35b6103b360048036038101906103ae9190612511565b610e2c565b6040516103c09190611ee9565b60405180910390f35b6103e360048036038101906103de919061213d565b610ec0565b005b60007f80ac58cd000000000000000000000000000000000000000000000000000000007bffffffffffffffffffffffffffffffffffffffffffffffffffffffff1916827bffffffffffffffffffffffffffffffffffffffffffffffffffffffff191614806104b057507f5b5e139f000000000000000000000000000000000000000000000000000000007bffffffffffffffffffffffffffffffffffffffffffffffffffffffff1916827bffffffffffffffffffffffffffffffffffffffffffffffffffffffff1916145b806104c057506104bf82610fb8565b5b9050919050565b6060600080546104d690612580565b80601f016020809104026020016040519081016040528092919081815260200182805461050290612580565b801561054f5780601f106105245761010080835404028352916020019161054f565b820191906000526020600020905b81548152906001019060200180831161053257829003601f168201915b5050505050905090565b600061056482611022565b6105a3576040517f08c379a000000000000000000000000000000000000000000000000000000000815260040161059a90612624565b60405180910390fd5b6004600083815260200190815260200160002060009054906101000a900473ffffffffffffffffffffffffffffffffffffffff169050919050565b60006105e982610776565b90508073ffffffffffffffffffffffffffffffffffffffff168373ffffffffffffffffffffffffffffffffffffffff16141561065a576040517f08c379a0000000000000000000000000000000000000000000000000000000008152600401610651906126b6565b60405180910390fd5b8073ffffffffffffffffffffffffffffffffffffffff1661067961108e565b73ffffffffffffffffffffffffffffffffffffffff1614806106a857506106a7816106a261108e565b610e2c565b5b6106e7576040517f08c379a00000000000000000000000000000000000000000000000000000000081526004016106de90612748565b60405180910390fd5b6106f18383611096565b505050565b61070761070161108e565b8261114f565b610746576040517f08c379a000000000000000000000000000000000000000000000000000000000815260040161073d906127da565b60405180910390fd5b61075183838361122d565b505050565b61077183838360405180602001604052806000815250610c72565b505050565b6000806002600084815260200190815260200160002060009054906101000a900473ffffffffffffffffffffffffffffffffffffffff169050600073ffffffffffffffffffffffffffffffffffffffff168173ffffffffffffffffffffffffffffffffffffffff16141561081f576040517f08c379a00000000000000000000000000000000000000000000000000000000081526004016108169061286c565b60405180910390fd5b80915050919050565b60008073ffffffffffffffffffffffffffffffffffffffff168273ffffffffffffffffffffffffffffffffffffffff161415610899576040517f08c379a0000000000000000000000000000000000000000000000000000000008152600401610890906128fe565b60405180910390fd5b600360008373ffffffffffffffffffffffffffffffffffffffff1673ffffffffffffffffffffffffffffffffffffffff168152602001908152602001600020549050919050565b6108e861108e565b73ffffffffffffffffffffffffffffffffffffffff166109066109b0565b73ffffffffffffffffffffffffffffffffffffffff161461095c576040517f08c379a00000000000000000000000000000000000000000000000000000000081526004016109539061296a565b60405180910390fd5b6109666000611489565b565b60608160405160200161097b9190612b1c565b60405160208183030381529060405260405160200161099a9190612bf2565b6040516020818303038152906040529050919050565b6000600760009054906101000a900473ffffffffffffffffffffffffffffffffffffffff16905090565b6060600180546109e990612580565b80601f0160208091040260200160405190810160405280929190818152602001828054610a1590612580565b8015610a625780601f10610a3757610100808354040283529160200191610a62565b820191906000526020600020905b815481529060010190602001808311610a4557829003601f168201915b5050505050905090565b610a7e610a7761108e565b838361154f565b5050565b60098054610a8f90612580565b80601f0160208091040260200160405190810160405280929190818152602001828054610abb90612580565b8015610b085780601f10610add57610100808354040283529160200191610b08565b820191906000526020600020905b815481529060010190602001808311610aeb57829003601f168201915b505050505081565b8215610b32578160099080519060200190610b2c929190611d92565b50610b6c565b600982604051602001610b46929190612ca8565b60405160208183030381529060405260099080519060200190610b6a929190611d92565b505b8015610c6d57610b7e336008546116bc565b610c1c600854610c1760098054610b9490612580565b80601f0160208091040260200160405190810160405280929190818152602001828054610bc090612580565b8015610c0d5780601f10610be257610100808354040283529160200191610c0d565b820191906000526020600020905b815481529060010190602001808311610bf057829003601f168201915b5050505050610968565b6116da565b6001600854610c2b9190612cfb565b6008819055506008547f9ead7d5cc723b7db5b42388a0279b9ce9d9ef9edf1138380057aae5d0eddd9fb6009604051610c649190612dd1565b60405180910390a25b505050565b610c83610c7d61108e565b8361114f565b610cc2576040517f08c379a0000000000000000000000000000000000000000000000000000000008152600401610cb9906127da565b60405180910390fd5b610cce8484848461174e565b50505050565b6060610cdf82611022565b610d1e576040517f08c379a0000000000000000000000000000000000000000000000000000000008152600401610d1590612e65565b60405180910390fd5b6000600660008481526020019081526020016000208054610d3e90612580565b80601f0160208091040260200160405190810160405280929190818152602001828054610d6a90612580565b8015610db75780601f10610d8c57610100808354040283529160200191610db7565b820191906000526020600020905b815481529060010190602001808311610d9a57829003601f168201915b505050505090506000610dc86117aa565b9050600081511415610dde578192505050610e21565b600082511115610e13578082604051602001610dfb929190612e85565b60405160208183030381529060405292505050610e21565b610e1c846117c1565b925050505b919050565b60085481565b6000600560008473ffffffffffffffffffffffffffffffffffffffff1673ffffffffffffffffffffffffffffffffffffffff16815260200190815260200160002060008373ffffffffffffffffffffffffffffffffffffffff1673ffffffffffffffffffffffffffffffffffffffff16815260200190815260200160002060009054906101000a900460ff16905092915050565b610ec861108e565b73ffffffffffffffffffffffffffffffffffffffff16610ee66109b0565b73ffffffffffffffffffffffffffffffffffffffff1614610f3c576040517f08c379a0000000000000000000000000000000000000000000000000000000008152600401610f339061296a565b60405180910390fd5b600073ffffffffffffffffffffffffffffffffffffffff168173ffffffffffffffffffffffffffffffffffffffff161415610fac576040517f08c379a0000000000000000000000000000000000000000000000000000000008152600401610fa390612f1b565b60405180910390fd5b610fb581611489565b50565b60007f01ffc9a7000000000000000000000000000000000000000000000000000000007bffffffffffffffffffffffffffffffffffffffffffffffffffffffff1916827bffffffffffffffffffffffffffffffffffffffffffffffffffffffff1916149050919050565b60008073ffffffffffffffffffffffffffffffffffffffff166002600084815260200190815260200160002060009054906101000a900473ffffffffffffffffffffffffffffffffffffffff1673ffffffffffffffffffffffffffffffffffffffff1614159050919050565b600033905090565b816004600083815260200190815260200160002060006101000a81548173ffffffffffffffffffffffffffffffffffffffff021916908373ffffffffffffffffffffffffffffffffffffffff160217905550808273ffffffffffffffffffffffffffffffffffffffff1661110983610776565b73ffffffffffffffffffffffffffffffffffffffff167f8c5be1e5ebec7d5bd14f71427d1e84f3dd0314c0f7b2291e5b200ac8c7c3b92560405160405180910390a45050565b600061115a82611022565b611199576040517f08c379a000000000000000000000000000000000000000000000000000000000815260040161119090612fad565b60405180910390fd5b60006111a483610776565b90508073ffffffffffffffffffffffffffffffffffffffff168473ffffffffffffffffffffffffffffffffffffffff16148061121357508373ffffffffffffffffffffffffffffffffffffffff166111fb84610559565b73ffffffffffffffffffffffffffffffffffffffff16145b8061122457506112238185610e2c565b5b91505092915050565b8273ffffffffffffffffffffffffffffffffffffffff1661124d82610776565b73ffffffffffffffffffffffffffffffffffffffff16146112a3576040517f08c379a000000000000000000000000000000000000000000000000000000000815260040161129a9061303f565b60405180910390fd5b600073ffffffffffffffffffffffffffffffffffffffff168273ffffffffffffffffffffffffffffffffffffffff161415611313576040517f08c379a000000000000000000000000000000000000000000000000000000000815260040161130a906130d1565b60405180910390fd5b61131e838383611868565b611329600082611096565b6001600360008573ffffffffffffffffffffffffffffffffffffffff1673ffffffffffffffffffffffffffffffffffffffff168152602001908152602001600020600082825461137991906130f1565b925050819055506001600360008473ffffffffffffffffffffffffffffffffffffffff1673ffffffffffffffffffffffffffffffffffffffff16815260200190815260200160002060008282546113d09190612cfb565b92505081905550816002600083815260200190815260200160002060006101000a81548173ffffffffffffffffffffffffffffffffffffffff021916908373ffffffffffffffffffffffffffffffffffffffff160217905550808273ffffffffffffffffffffffffffffffffffffffff168473ffffffffffffffffffffffffffffffffffffffff167fddf252ad1be2c89b69c2b068fc378daa952ba7f163c4a11628f55a4df523b3ef60405160405180910390a4505050565b6000600760009054906101000a900473ffffffffffffffffffffffffffffffffffffffff16905081600760006101000a81548173ffffffffffffffffffffffffffffffffffffffff021916908373ffffffffffffffffffffffffffffffffffffffff1602179055508173ffffffffffffffffffffffffffffffffffffffff168173ffffffffffffffffffffffffffffffffffffffff167f8be0079c531659141344cd1fd0a4f28419497f9722a3daafe3b4186f6b6457e060405160405180910390a35050565b8173ffffffffffffffffffffffffffffffffffffffff168373ffffffffffffffffffffffffffffffffffffffff1614156115be576040517f08c379a00000000000000000000000000000000000000000000000000000000081526004016115b590613171565b60405180910390fd5b80600560008573ffffffffffffffffffffffffffffffffffffffff1673ffffffffffffffffffffffffffffffffffffffff16815260200190815260200160002060008473ffffffffffffffffffffffffffffffffffffffff1673ffffffffffffffffffffffffffffffffffffffff16815260200190815260200160002060006101000a81548160ff0219169083151502179055508173ffffffffffffffffffffffffffffffffffffffff168373ffffffffffffffffffffffffffffffffffffffff167f17307eab39ab6107e8899845ad3d59bd9653f200f220920489ca2b5937696c31836040516116af9190611ee9565b60405180910390a3505050565b6116d682826040518060200160405280600081525061186d565b5050565b6116e382611022565b611722576040517f08c379a000000000000000000000000000000000000000000000000000000000815260040161171990613203565b60405180910390fd5b80600660008481526020019081526020016000209080519060200190611749929190611d92565b505050565b61175984848461122d565b611765848484846118c8565b6117a4576040517f08c379a000000000000000000000000000000000000000000000000000000000815260040161179b90613295565b60405180910390fd5b50505050565b606060405180602001604052806000815250905090565b60606117cc82611022565b61180b576040517f08c379a000000000000000000000000000000000000000000000000000000000815260040161180290613327565b60405180910390fd5b60006118156117aa565b905060008151116118355760405180602001604052806000815250611860565b8061183f84611a50565b604051602001611850929190612e85565b6040516020818303038152906040525b915050919050565b505050565b6118778383611bb1565b61188460008484846118c8565b6118c3576040517f08c379a00000000000000000000000000000000000000000000000000000000081526004016118ba90613295565b60405180910390fd5b505050565b60006118e98473ffffffffffffffffffffffffffffffffffffffff16611d7f565b15611a43578373ffffffffffffffffffffffffffffffffffffffff1663150b7a0261191261108e565b8786866040518563ffffffff1660e01b81526004016119349493929190613391565b6020604051808303816000875af192505050801561197057506040513d601f19601f8201168201806040525081019061196d91906133f2565b60015b6119f3573d80600081146119a0576040519150601f19603f3d011682016040523d82523d6000602084013e6119a5565b606091505b506000815114156119eb576040517f08c379a00000000000000000000000000000000000000000000000000000000081526004016119e290613295565b60405180910390fd5b805181602001fd5b63150b7a0260e01b7bffffffffffffffffffffffffffffffffffffffffffffffffffffffff1916817bffffffffffffffffffffffffffffffffffffffffffffffffffffffff191614915050611a48565b600190505b949350505050565b60606000821415611a98576040518060400160405280600181526020017f30000000000000000000000000000000000000000000000000000000000000008152509050611bac565b600082905060005b60008214611aca578080611ab39061341f565b915050600a82611ac39190613497565b9150611aa0565b60008167ffffffffffffffff811115611ae657611ae561219e565b5b6040519080825280601f01601f191660200182016040528015611b185781602001600182028036833780820191505090505b5090505b60008514611ba557600182611b3191906130f1565b9150600a85611b4091906134c8565b6030611b4c9190612cfb565b60f81b818381518110611b6257611b616134f9565b5b60200101907effffffffffffffffffffffffffffffffffffffffffffffffffffffffffffff1916908160001a905350600a85611b9e9190613497565b9450611b1c565b8093505050505b919050565b600073ffffffffffffffffffffffffffffffffffffffff168273ffffffffffffffffffffffffffffffffffffffff161415611c21576040517f08c379a0000000000000000000000000000000000000000000000000000000008152600401611c1890613574565b60405180910390fd5b611c2a81611022565b15611c6a576040517f08c379a0000000000000000000000000000000000000000000000000000000008152600401611c61906135e0565b60405180910390fd5b611c7660008383611868565b6001600360008473ffffffffffffffffffffffffffffffffffffffff1673ffffffffffffffffffffffffffffffffffffffff1681526020019081526020016000206000828254611cc69190612cfb565b92505081905550816002600083815260200190815260200160002060006101000a81548173ffffffffffffffffffffffffffffffffffffffff021916908373ffffffffffffffffffffffffffffffffffffffff160217905550808273ffffffffffffffffffffffffffffffffffffffff16600073ffffffffffffffffffffffffffffffffffffffff167fddf252ad1be2c89b69c2b068fc378daa952ba7f163c4a11628f55a4df523b3ef60405160405180910390a45050565b600080823b905060008111915050919050565b828054611d9e90612580565b90600052602060002090601f016020900481019282611dc05760008555611e07565b82601f10611dd957805160ff1916838001178555611e07565b82800160010185558215611e07579182015b82811115611e06578251825591602001919060010190611deb565b5b509050611e149190611e18565b5090565b5b80821115611e31576000816000905550600101611e19565b5090565b6000604051905090565b600080fd5b600080fd5b60007fffffffff0000000000000000000000000000000000000000000000000000000082169050919050565b611e7e81611e49565b8114611e8957600080fd5b50565b600081359050611e9b81611e75565b92915050565b600060208284031215611eb757611eb6611e3f565b5b6000611ec584828501611e8c565b91505092915050565b60008115159050919050565b611ee381611ece565b82525050565b6000602082019050611efe6000830184611eda565b92915050565b600081519050919050565b600082825260208201905092915050565b60005b83811015611f3e578082015181840152602081019050611f23565b83811115611f4d576000848401525b50505050565b6000601f19601f8301169050919050565b6000611f6f82611f04565b611f798185611f0f565b9350611f89818560208601611f20565b611f9281611f53565b840191505092915050565b60006020820190508181036000830152611fb78184611f64565b905092915050565b6000819050919050565b611fd281611fbf565b8114611fdd57600080fd5b50565b600081359050611fef81611fc9565b92915050565b60006020828403121561200b5761200a611e3f565b5b600061201984828501611fe0565b91505092915050565b600073ffffffffffffffffffffffffffffffffffffffff82169050919050565b600061204d82612022565b9050919050565b61205d81612042565b82525050565b60006020820190506120786000830184612054565b92915050565b61208781612042565b811461209257600080fd5b50565b6000813590506120a48161207e565b92915050565b600080604083850312156120c1576120c0611e3f565b5b60006120cf85828601612095565b92505060206120e085828601611fe0565b9150509250929050565b60008060006060848603121561210357612102611e3f565b5b600061211186828701612095565b935050602061212286828701612095565b925050604061213386828701611fe0565b9150509250925092565b60006020828403121561215357612152611e3f565b5b600061216184828501612095565b91505092915050565b61217381611fbf565b82525050565b600060208201905061218e600083018461216a565b92915050565b600080fd5b600080fd5b7f4e487b7100000000000000000000000000000000000000000000000000000000600052604160045260246000fd5b6121d682611f53565b810181811067ffffffffffffffff821117156121f5576121f461219e565b5b80604052505050565b6000612208611e35565b905061221482826121cd565b919050565b600067ffffffffffffffff8211156122345761223361219e565b5b61223d82611f53565b9050602081019050919050565b82818337600083830152505050565b600061226c61226784612219565b6121fe565b90508281526020810184848401111561228857612287612199565b5b61229384828561224a565b509392505050565b600082601f8301126122b0576122af612194565b5b81356122c0848260208601612259565b91505092915050565b6000602082840312156122df576122de611e3f565b5b600082013567ffffffffffffffff8111156122fd576122fc611e44565b5b6123098482850161229b565b91505092915050565b61231b81611ece565b811461232657600080fd5b50565b60008135905061233881612312565b92915050565b6000806040838503121561235557612354611e3f565b5b600061236385828601612095565b925050602061237485828601612329565b9150509250929050565b60008060006060848603121561239757612396611e3f565b5b60006123a586828701612329565b935050602084013567ffffffffffffffff8111156123c6576123c5611e44565b5b6123d28682870161229b565b92505060406123e386828701612329565b9150509250925092565b600067ffffffffffffffff8211156124085761240761219e565b5b61241182611f53565b9050602081019050919050565b600061243161242c846123ed565b6121fe565b90508281526020810184848401111561244d5761244c612199565b5b61245884828561224a565b509392505050565b600082601f83011261247557612474612194565b5b813561248584826020860161241e565b91505092915050565b600080600080608085870312156124a8576124a7611e3f565b5b60006124b687828801612095565b94505060206124c787828801612095565b93505060406124d887828801611fe0565b925050606085013567ffffffffffffffff8111156124f9576124f8611e44565b5b61250587828801612460565b91505092959194509250565b6000806040838503121561252857612527611e3f565b5b600061253685828601612095565b925050602061254785828601612095565b9150509250929050565b7f4e487b7100000000000000000000000000000000000000000000000000000000600052602260045260246000fd5b6000600282049050600182168061259857607f821691505b602082108114156125ac576125ab612551565b5b50919050565b7f4552433732313a20617070726f76656420717565727920666f72206e6f6e657860008201527f697374656e7420746f6b656e0000000000000000000000000000000000000000602082015250565b600061260e602c83611f0f565b9150612619826125b2565b604082019050919050565b6000602082019050818103600083015261263d81612601565b9050919050565b7f4552433732313a20617070726f76616c20746f2063757272656e74206f776e6560008201527f7200000000000000000000000000000000000000000000000000000000000000602082015250565b60006126a0602183611f0f565b91506126ab82612644565b604082019050919050565b600060208201905081810360008301526126cf81612693565b9050919050565b7f4552433732313a20617070726f76652063616c6c6572206973206e6f74206f7760008201527f6e6572206e6f7220617070726f76656420666f7220616c6c0000000000000000602082015250565b6000612732603883611f0f565b915061273d826126d6565b604082019050919050565b6000602082019050818103600083015261276181612725565b9050919050565b7f4552433732313a207472616e736665722063616c6c6572206973206e6f74206f60008201527f776e6572206e6f7220617070726f766564000000000000000000000000000000602082015250565b60006127c4603183611f0f565b91506127cf82612768565b604082019050919050565b600060208201905081810360008301526127f3816127b7565b9050919050565b7f4552433732313a206f776e657220717565727920666f72206e6f6e657869737460008201527f656e7420746f6b656e0000000000000000000000000000000000000000000000602082015250565b6000612856602983611f0f565b9150612861826127fa565b604082019050919050565b6000602082019050818103600083015261288581612849565b9050919050565b7f4552433732313a2062616c616e636520717565727920666f7220746865207a6560008201527f726f206164647265737300000000000000000000000000000000000000000000602082015250565b60006128e8602a83611f0f565b91506128f38261288c565b604082019050919050565b60006020820190508181036000830152612917816128db565b9050919050565b7f4f776e61626c653a2063616c6c6572206973206e6f7420746865206f776e6572600082015250565b6000612954602083611f0f565b915061295f8261291e565b602082019050919050565b6000602082019050818103600083015261298381612947565b9050919050565b600081905092915050565b7f7b226e616d65223a220000000000000000000000000000000000000000000000600082015250565b60006129cb60098361298a565b91506129d682612995565b600982019050919050565b7f436861696e204172740000000000000000000000000000000000000000000000600082015250565b6000612a1760098361298a565b9150612a22826129e1565b600982019050919050565b7f222c20226465736372697074696f6e223a22222c20226174747269627574657360008201527f223a22222c2022696d616765223a220000000000000000000000000000000000602082015250565b6000612a89602f8361298a565b9150612a9482612a2d565b602f82019050919050565b6000612aaa82611f04565b612ab4818561298a565b9350612ac4818560208601611f20565b80840191505092915050565b7f227d000000000000000000000000000000000000000000000000000000000000600082015250565b6000612b0660028361298a565b9150612b1182612ad0565b600282019050919050565b6000612b27826129be565b9150612b3282612a0a565b9150612b3d82612a7c565b9150612b498284612a9f565b9150612b5482612af9565b915081905092915050565b7f646174613a6170706c69636174696f6e2f6a736f6e3b2c000000000000000000600082015250565b6000612b9560178361298a565b9150612ba082612b5f565b601782019050919050565b600081519050919050565b600081905092915050565b6000612bcc82612bab565b612bd68185612bb6565b9350612be6818560208601611f20565b80840191505092915050565b6000612bfd82612b88565b9150612c098284612bc1565b915081905092915050565b60008190508160005260206000209050919050565b60008154612c3681612580565b612c40818661298a565b94506001821660008114612c5b5760018114612c6c57612c9f565b60ff19831686528186019350612c9f565b612c7585612c14565b60005b83811015612c9757815481890152600182019150602081019050612c78565b838801955050505b50505092915050565b6000612cb48285612c29565b9150612cc08284612a9f565b91508190509392505050565b7f4e487b7100000000000000000000000000000000000000000000000000000000600052601160045260246000fd5b6000612d0682611fbf565b9150612d1183611fbf565b9250827fffffffffffffffffffffffffffffffffffffffffffffffffffffffffffffffff03821115612d4657612d45612ccc565b5b828201905092915050565b60008154612d5e81612580565b612d688186611f0f565b94506001821660008114612d835760018114612d9557612dc8565b60ff1983168652602086019350612dc8565b612d9e85612c14565b60005b83811015612dc057815481890152600182019150602081019050612da1565b808801955050505b50505092915050565b60006020820190508181036000830152612deb8184612d51565b905092915050565b7f45524337323155524953746f726167653a2055524920717565727920666f722060008201527f6e6f6e6578697374656e7420746f6b656e000000000000000000000000000000602082015250565b6000612e4f603183611f0f565b9150612e5a82612df3565b604082019050919050565b60006020820190508181036000830152612e7e81612e42565b9050919050565b6000612e918285612a9f565b9150612e9d8284612a9f565b91508190509392505050565b7f4f776e61626c653a206e6577206f776e657220697320746865207a65726f206160008201527f6464726573730000000000000000000000000000000000000000000000000000602082015250565b6000612f05602683611f0f565b9150612f1082612ea9565b604082019050919050565b60006020820190508181036000830152612f3481612ef8565b9050919050565b7f4552433732313a206f70657261746f7220717565727920666f72206e6f6e657860008201527f697374656e7420746f6b656e0000000000000000000000000000000000000000602082015250565b6000612f97602c83611f0f565b9150612fa282612f3b565b604082019050919050565b60006020820190508181036000830152612fc681612f8a565b9050919050565b7f4552433732313a207472616e73666572206f6620746f6b656e2074686174206960008201527f73206e6f74206f776e0000000000000000000000000000000000000000000000602082015250565b6000613029602983611f0f565b915061303482612fcd565b604082019050919050565b600060208201905081810360008301526130588161301c565b9050919050565b7f4552433732313a207472616e7366657220746f20746865207a65726f2061646460008201527f7265737300000000000000000000000000000000000000000000000000000000602082015250565b60006130bb602483611f0f565b91506130c68261305f565b604082019050919050565b600060208201905081810360008301526130ea816130ae565b9050919050565b60006130fc82611fbf565b915061310783611fbf565b92508282101561311a57613119612ccc565b5b828203905092915050565b7f4552433732313a20617070726f766520746f2063616c6c657200000000000000600082015250565b600061315b601983611f0f565b915061316682613125565b602082019050919050565b6000602082019050818103600083015261318a8161314e565b9050919050565b7f45524337323155524953746f726167653a2055524920736574206f66206e6f6e60008201527f6578697374656e7420746f6b656e000000000000000000000000000000000000602082015250565b60006131ed602e83611f0f565b91506131f882613191565b604082019050919050565b6000602082019050818103600083015261321c816131e0565b9050919050565b7f4552433732313a207472616e7366657220746f206e6f6e20455243373231526560008201527f63656976657220696d706c656d656e7465720000000000000000000000000000602082015250565b600061327f603283611f0f565b915061328a82613223565b604082019050919050565b600060208201905081810360008301526132ae81613272565b9050919050565b7f4552433732314d657461646174613a2055524920717565727920666f72206e6f60008201527f6e6578697374656e7420746f6b656e0000000000000000000000000000000000602082015250565b6000613311602f83611f0f565b915061331c826132b5565b604082019050919050565b6000602082019050818103600083015261334081613304565b9050919050565b600082825260208201905092915050565b600061336382612bab565b61336d8185613347565b935061337d818560208601611f20565b61338681611f53565b840191505092915050565b60006080820190506133a66000830187612054565b6133b36020830186612054565b6133c0604083018561216a565b81810360608301526133d28184613358565b905095945050505050565b6000815190506133ec81611e75565b92915050565b60006020828403121561340857613407611e3f565b5b6000613416848285016133dd565b91505092915050565b600061342a82611fbf565b91507fffffffffffffffffffffffffffffffffffffffffffffffffffffffffffffffff82141561345d5761345c612ccc565b5b600182019050919050565b7f4e487b7100000000000000000000000000000000000000000000000000000000600052601260045260246000fd5b60006134a282611fbf565b91506134ad83611fbf565b9250826134bd576134bc613468565b5b828204905092915050565b60006134d382611fbf565b91506134de83611fbf565b9250826134ee576134ed613468565b5b828206905092915050565b7f4e487b7100000000000000000000000000000000000000000000000000000000600052603260045260246000fd5b7f4552433732313a206d696e7420746f20746865207a65726f2061646472657373600082015250565b600061355e602083611f0f565b915061356982613528565b602082019050919050565b6000602082019050818103600083015261358d81613551565b9050919050565b7f4552433732313a20746f6b656e20616c7265616479206d696e74656400000000600082015250565b60006135ca601c83611f0f565b91506135d582613594565b602082019050919050565b600060208201905081810360008301526135f9816135bd565b905091905056fea2646970667358221220f64f2b9417f791b8bff142d5013f8882c3b7834f7397686af231459ef69c3d9964736f6c634300080b0033",
  "linkReferences": {},
  "deployedLinkReferences": {}
}